:100000000C94C2060C9409070C9409070C94A532B1
:100010000C9409070C9409070C9409070C94090720
:100020000C9409070C9409070C94FD270C943927AC
:100030000C94FA200C9409070C9409070C940907F6
:100040000C9409070C9409070C9409070C940907F0
:100050000C9409070C94AD200C9409070C94090723
:100060000C9409070C9409070C9409070C940907D0
:100070000C9409070C9409070C9409070C940907C0
:100080000C9409070C9409070C9409070C940907B0
:100090000C9409070C9409070C9409070C940907A0
:1000A0000C9409070C9409070C940907590B590B78
:1000B0008B0B8B0BFD0B190CB00DB00D240C020D2E
:1000C000130D130D52257925112779251127C125E7
:1000D000E4251127D326E626442A442A572A572AFC
:1000E0004D2A572A572A572A442A442A522A572A3D
:1000F000572A522A00DA0281FFD9F1DB20A4A62E6A
:10010000AF00A0C000A1C800AED580A81FD300409A
:100110008D1420001E0F0500047F3F1F64321464FD
:100120003214783C1E1E140A0541646A757374000B
:100130005261697365004C6F776572004465666152
:10014000756C74004C617965723A20003A002C207D
:100150006B0078000000000000FEFFFFFFFFFFFFC4
:10016000FFFFFFFFFFFFFFFFFFFFFFFFFFFFFFFF9F
:10017000FFFFFFFFFFFFFFFFFFFFFFFFFFFFFFFF8F
:100180000F0F0F0F0FFFFFFFFFFFFFFFFFFFFFFF2F
:10019000FFFFFFFFFFFE0000000000000000000066
:1001A000000000000000000000000000000000004F
:1001B000000000000000000000000000000000003F
:1001C000000000000000000000000000000000002F
:1001D000000000000000000000FFFFFFFF8383839A
:1001E0008383FFFF83838383FFFF8383838383FF73
:1001F000FF83838383FFFF8383838383FFFFFFFF6B
:100200008282828282FFFF83838383FFFF838383D3
:100210008383FFFFFFFF00000000000000000000DC
:10022000F8FCFCFC9C9CFCFCF8F870000000000052
:1002300030787C3C9CFCFCF8F00000000000C0F032
:10024000F8F83C3C9CBCFCB8B8A0000000000000E2
:10025000000000000000000000FFFFFFFF414141DF
:100260004141FFFFFFFFFFFFFFFF4141414141FFD0
:10027000FFFFFFFFFFFFFF4141414141FFFFFFFF44
:100280004141414141FFFF7F7F7F7FFFFF4141416E
:100290004141FFFFFFFF00000000000000000000E0
:1002A0003F3F3F3F03070F3F3F3E38200000000025
:1002B000383C3E3F3F3F3B39380000000000070F0D
:1002C0001F3F3C383B3B3F1F1F0F0000000000005A
:1002D0000000000000000000007FFFFFFFF0F0F0D2
:1002E000F0F0FFFFFFFFFFFFFFFFF0F0F0F0F0FF87
:1002F000FFFFFFFFFFFFFFF0F0F0F0F0FFFFFFFF59
:10030000F0F0F0F0F0FFFFF0F0F0F0FFFFF0F0F0B1
:10031000F0F0FFFFFF7F0000000000000000000081
:1003200000000000000000000000000000000000CD
:1003300000000000000000000000000000000000BD
:1003400000000000000000000000000000000000AD
:10035000000000002223252628292A2C2D2F3032A8
:10036000333536383A3B3D3E4042434547494A4C97
:100370004E5051535557595A5C5E606264666869C5
:100380006B6D6F71737577797B7D7F8183858789CD
:100390008A8C8E90929496989A9C9E9FA1A3A5A7D2
:1003A000A8AAACAEAFB1B3B4B6B8B9BBBCBEBFC1FE
:1003B000C2C3C5C6C7C9CACBCCCDCED0D1D2D2D389
:1003C000D4D5D6D7D7D8D9D9DADADBDBDBDCDCDC9D
:1003D000DCDCDDDDDDDDDCDCDCDCDCDBDBDBDADA60
:1003E000D9D9D8D7D7D6D5D4D3D2D2D1D0CECDCCD7
:1003F000CBCAC9C7C6C5C3C2C1BFBEBCBBB9B8B6EC
:10040000B4B3B1AFAEACAAA8A7A5A3A19F9E9C9A76
:1004100098969492908E8C8A89878583817F7D7B44
:1004200079777573716F6D6B6968666462605E5C25
:100430005A5957555351504E4C4A494745434240EB
:100440003E3D3B3A3836353332302F2D2C2A292881
:100450002625232200AF00AE05010902A101850275
:100460000901A100050919012908150025019508B0
:10047000750181020501093009311581257F950239
:100480007508810609381581257F95017508810653
:10049000050C0A38021581257F950175088106C073
:1004A000C005010980A101850319012AB7001501C2
:1004B00026B700950175108100C0050C0901A10146
:1004C000850419012AA002150126A00295017510C4
:1004D0008100C005010906A1018506050719E0296B
:1004E000E715002501950875018102050719002906
:1004F000EF1500250195F075018102050819012904
:1005000005950575019102950175039101C00501DD
:100510000906A101050719E029E71500250195083D
:10052000750181029501750881010507190029FFF0
:10053000150026FF00950675088100050819012998
:1005400005950575019102950175039101C0090298
:100550003B00020100A0FA090400000103010100B0
:100560000921110100012240000705810308000A4A
:10057000090401000103000000092111010001220A
:10058000B6000705820320000A12010002000000E5
:1005900008534601000100010200010C0343006FF3
:1005A0000072006E0065000000100366006F006FAF
:1005B000007300740061006E000000040309040071
:1005C00000000000003E5B4F5B3E003E6B4F6B3E09
:1005D000001C3E7C3E1C00183C7E3C18001C577DD5
:1005E000571C001C5E7F5E1C0000183C180000FFBA
:1005F000E7C3E7FF00001824180000FFE7DBE7FF70
:100600000030483A060E00262979292600407F0549
:10061000050700407F05253F005A3CE73C5A007F14
:100620003E1C1C0800081C1C3E7F0014227F221464
:10063000005F5F005F5F0006097F017F0000668941
:10064000956A0060606060600094A2FFA294000858
:10065000047E04080010207E20100008082A1C08D0
:1006600000081C2A0808001E10101010000C1E0C98
:100670001E0C0030383E383000060E3E0E060000DC
:10068000000000000000005F0000000007000700FD
:1006900000147F147F1400242A7F2A1200231308D9
:1006A000646200364956205000000807030000002D
:1006B0001C224100000041221C00002A1C7F1C2A31
:1006C0000008083E08080000807030000008080894
:1006D0000808000000606000002010080402003ECE
:1006E0005149453E0000427F400000724949494659
:1006F000002141494D33001814127F100027454551
:100700004539003C4A494931004121110907003669
:100710004949493600464949291E00000014000095
:10072000000040340000000008142241001414149A
:100730001414000041221408000201590906003E69
:10074000415D594E007C1211127C007F49494936A7
:10075000003E41414122007F4141413E007F4949E5
:100760004941007F09090901003E41415173007F61
:100770000808087F0000417F4100002040413F0100
:10078000007F08142241007F40404040007F021C4F
:10079000027F007F0408107F003E4141413E007F00
:1007A00009090906003E4151215E007F09192946C9
:1007B0000026494949320003017F0103003F4040C0
:1007C000403F001F2040201F003F4038403F006353
:1007D00014081463000304780403006159494D436D
:1007E00000007F4141410002040810200000414107
:1007F000417F0004020102040040404040400000EC
:1008000003070800002054547840007F28444438EF
:1008100000384444442800384444287F0038545465
:1008200054180000087E0902001824241C78007F58
:10083000080404780000447D4000002040403D0052
:10084000007F102844000000417F4000007C0478B5
:100850000478007C08040478003844444438007C60
:100860001824241800182424187C007C0804040888
:100870000048545454240004043F4424003C4040A5
:10088000207C001C2040201C003C4030403C0044A8
:1008900028102844004C9090907C004464544C44B0
:1008A00000000836410000000077000000004136DB
:1008B0000800000201020402003C2623263C00003E
:1008C000000000000000000000000000000000C068
:1008D000E0F0F8F81800C0F0FCFEFFFFFFFFFFFF9C
:1008E000FF7E00000000000000000080C0E0E0E0AB
:1008F000E0E0E0E0E0C0800000000080C0E0E0E078
:10090000E0E0E0E0E0C080000000E0E0C0C0E0E047
:10091000E0E00000E0E0C0C0E0E0E0E0E0C0800037
:1009200000000080C0E0E0E0E0E0E0E0E0C0800047
:1009300000000000000000000000000000E0F0F0F7
:10094000F0E0ECEEF7F37020007C7C7C7E007E7E95
:100950007E7F7F7F000080C0E07E5B4F5BFEC0003B
:1009600000C000DCD7DEDEDED7DC00C00000000007
:100970000000000000000000000000000000000077
:100980000000000000000000F8FCFEFFE000FFFF98
:10099000FFFFFFFF80FFFFFFFFFFFFFFFFFF1F07BE
:1009A00001000000000000000000FFFFFF810000C8
:1009B0000000000081C3C3C30000FFFFFF810000EF
:1009C0000000000081FFFFFF0000FFFFFF010000AB
:1009D00000000000FFFFFF010000000001FFFFFF1B
:1009E0000000FFFFFF9D1C1C1C1C1C1C9DDFDFDF8B
:1009F000000000000000000000000000000F1F3F8A
:100A00007F7F7F7F7F3F1E0C001F1F1F3F003F3FE8
:100A10003F7F7F7F00307B7F7830202030787F3BA6
:100A20000003000F7F0F0F0F7F0F00030000000077
:100A300000000000000000000000000000000000B6
:100A40000000000000000000030F1F3F3F3F3F1F5A
:100A50001F3F3F7F7F7F3F3F1F3F7F7F7F7F7C78B0
:100A600078381C0F00000000000000010307070792
:100A70000707070707030100000000010307070736
:100A8000070707070703010000000707070000002A
:100A9000000000000707070000000000000707072C
:100AA0000000000103070707070707070703010006
:100AB0000000000000000000000000000000000036
:100AC0000000000000000000000000000000000026
:100AD0000000000000000000000000000000000016
:100AE0000000000000000000000000000000000006
:100AF00000000000000000000000000000000029CD
:100B00000014001A00080015001700E10004001688
:100B100000070009000A00E0001D001B0006001984
:100B2000000500000000000000E30001512C002A35
:100B300000130012000C0018001C00340033000FDA
:100B4000000E000D000B002B00380037003600109F
:100B5000001100000000000000E600025128004CD7
:100B60000000001E001F0020002602E100000021FE
:100B700000220023002F00E00000002400250026B2
:100B8000002700000000000000E30001002C002A04
:100B9000004B00000052000000270200004E004FF2
:100BA00000510050003000000000004D0000004ADD
:100BB000000000000000000000E6000351280029AA
:100BC000001E021F02200221022202E1000000009A
:100BD00000000000000000E0000000000000000035
:100BE000000000000000000000E30003512C002A78
:100BF000002702260225022402230235003100309C
:100C0000002F002E002D003502310230022F022E5F
:100C1000022D02000000000000E600010028000094
:100C20005C00000000000000000000C35CC65CC85F
:100C30005CCA5C00000000C45CC75CC95CCB5C00A3
:100C4000000000000000000000E30001002C000094
:100C500000000000003C003B003A000000000000E3
:100C6000003F003E003D0000000000000042004147
:100C7000004000000000000000E600010028000025
:100C8000010101010101010101020202020202024D
:100C90000202030303030303030304040404040420
:100CA00004050505050506060606060707070707E6
:100CB00008080808090909090A0A0A0B0B0B0C0C99
:100CC0000C0D0D0D0E0E0E0F0F0F10101111111235
:100CD0001213131414151516161717181819191AB4
:100CE0001A1B1B1C1D1D1E1E1F2020212222232417
:100CF00024252626272829292A2B2C2D2D2E2F3056
:100D0000313232333435363738393A3B3C3D3E3F69
:100D1000404142434445464748494A4C4D4E4F5056
:100D2000515354555658595A5B5D5E5F6162646514
:100D30006668696B6C6D6F7072737577787A7B7D9E
:100D40007E8082838587888A8C8E8F9193959698F2
:100D50009A9C9EA0A2A3A5A7A9ABADAFB1B3B5B70E
:100D6000BABCBEC0C2C4C6C9CBCDCFD1D4D6D8DBE5
:100D7000DDDFE2E4E7E9EBEEF0F3F5F8FAFDFFFF83
:100D8000AA7F554011241FBECFEFDAE0DEBFCDBFF2
:100D900004B603FE27C08091350790913607A091D5
:100DA0003707B09138078730904BA740B04BD1F44C
:100DB00010923507109236071092370710923807B5
:100DC00014BE84B7877F84BF0FB6F894A89580912E
:100DD0006000886180936000109260000FBEE0E0C8
:100DE000F8E3099512E0A0E0B1E0E0E6FBE602C01E
:100DF00005900D92A830B107D9F727E0A8E0B2E03E
:100E000001C01D92A533B207E1F70E94F40E0C94C5
:100E1000AE350C940000882321F00E94DA280C944F
:100E2000E1280895882339F090912607892B809333
:100E300026070C94E1280895882379F19CEF980FF8
:100E4000913A30F4682F8DEA96E00E9423210DC07C
:100E500090E2980F983058F4877091E001C0990F94
:100E60008A95EAF7892F0E94DA280C94E1289BE5FD
:100E7000980F933020F480E090E00C94962198E550
:100E8000980F973120F480E090E00C9480218D3E03
:100E900020F00E94622F0C9476300895CF9388231F
:100EA00009F472C0C82F8CEF8C0F813AC0F5809185
:100EB00056018823E1F08091690487FF18C0EC2F68
:100EC000E695E695E695F0E0E355F94F8281282F07
:100ED00030E04C2F477081E090E002C0880F991FEE
:100EE0004A95E2F782239323892B61F412C0EFEA3B
:100EF000F6E085EB96E02191C21721F08E179F074F
:100F0000D1F707C06C2F8DEA96E00E9423210E9442
:100F1000E1286C2F8DEA96E00E944B2110C080E200
:100F20008C0F883078F4C77081E090E001C0880FA2
:100F3000CA95EAF790912607892B80932607CF91CF
:100F40000C94E128EBE5EC0FE33040F4F0E0E655DB
:100F5000FE4F808190E0CF910C949621E8E5EC0F54
:100F6000E73150F4F0E0EE0FFF1FE355FE4F8081B4
:100F70009181CF910C948021CD3E30F08C2F0E9436
:100F80001B30CF910C947630CF9108951F93CF935F
:100F9000DF93CDB7DEB767970FB6F894DEBF0FBE0D
:100FA000CDBF4B8B5C8B6D8B7E8B8F8B61111092C9
:100FB000250786E09E01235F3F4FD901E82F1D9250
:100FC000EA95E9F795E0FE017396D90101900D923B
:100FD0009A95E1F79C894E895F897B897D879E87F9
:100FE0006F87598B488BF901DE01179601900D929E
:100FF0008A95E1F7CE0107960E945B2A81113EC0D7
:1010000086E0FE013796DE01119601900D928A95D9
:10101000E1F7FF81E8856A857B856115710531F00F
:10102000EF3F31F481E0FF3F19F403C081E001C0DC
:1010300080E080FD23C02091F10630E0C9010196D7
:10104000877099274091220750E08417950779F11E
:10105000F983EA837D836C8396E0929FD001939F0E
:10106000B00D1124AE50B94FFE01319601900D9292
:101070009A95E1F78093F1060E94442916E0809149
:1010800022079091F1068917F9F0189FC0011124E9
:101090008E50994F0E945B2A8823B1F080912207DD
:1010A00090E001968770992780932207E8CF0E94ED
:1010B000E92C1092F10610922207EBEEF6E086E0A2
:1010C000DF011D928A95E9F767960FB6F894DEBFA7
:1010D0000FBECDBFDF91CF911F9108958F929F9248
:1010E000AF92BF92CF92DF92EF92FF920F931F9336
:1010F000CF93DF93CDB7DEB72A970FB6F894DEBF54
:101100000FBECDBFFC010081D18083819481892BEA
:1011100039F01FEFD11206C091E00F3F19F403C060
:1011200091E001C090E090FD4CC67F0185E0DE01BA
:10113000169601900D928A95E1F7F70122818E8132
:101140009F81222349F00E94BA29182F682F8E818F
:101150009F810E94292C03C00E94FC2B182F20E3A2
:10116000129FF001112436E0D39EE00DF11D1124F1
:10117000E00FF11DEE0FFF1FE150F54F05911491A7
:10118000F7018281882309F448C080E2809313012B
:10119000C80190568115F0E29F0748F0905E8115D6
:1011A000904128F0109331020093300206C0C8012C
:1011B000992790933102809330020C33110530F45B
:1011C000F801E85AFE4F808180931301F701818175
:1011D00080933302808180933202043FFCE51F0735
:1011E00009F447C078F4093D3CE51307C9F10A3D0D
:1011F0008CE5180709F455C0083D9CE5190709F06E
:1012000056C028C0063FECE51E07F9F1C0F1073FC4
:101210002CE5120709F43FC04AC0043F3CE5130720
:1012200041F170F4093D9CE51907D1F00A3DECE568
:101230001E07B9F1083DFCE51F0709F07DC10AC092
:10124000063F2CE5120709F1D0F0073F8CE518079F
:1012500011F172C106E221EE41EE68ED7CE505C0B8
:1012600007E225EE45EE69ED7CE5C7010E94BC2151
:10127000D7C406E221EE40EE64EF7CE5F6CF07E24C
:1012800025EE44EE65EF7CE5F0CF06E221EE42EE7E
:1012900066EF7CE5EACF07E225EE46EE67EF7CE5F8
:1012A000E4CF08E221E045EE6AED7CE5DECF109266
:1012B0005D0404309DE5190758F40B3FECE51E076B
:1012C00060F4C80182509C45449708F01FC105C0D6
:1012D0000236FDE51F0709F019C10E943E199093DF
:1012E0006A048093690400312CE5120709F4CAC02E
:1012F00008F041C008308CE5180709F4A4C0F0F4E8
:101300000430ECE51E0709F48CC068F402302CE5CB
:10131000120709F482C003301C4509F0E7C0809130
:1013200069048260E1C006308CE5180709F483C0C7
:1013300008F085C0809169048860D6C00C30ECE567
:101340001E0709F490C068F40A302CE5120709F46E
:101350007EC008F084C00E94E92C809169048068F6
:10136000C3C00E308CE5180709F481C008F086C0B0
:101370008091690494C00D3FECE51E0709F47BC021
:1013800038F504312CE5120709F49AC058F40231FB
:101390008CE5180709F47AC008F07EC080916904D2
:1013A0008F7BA2C00B3FECE51E07F1F108F03FC0B8
:1013B00005311C4509F09AC08091690482FB2227FF
:1013C00020F991E0922790FB82F990FB83F98CC081
:1013D00001303DE5130709F467C050F480916A04B9
:1013E0000F3F9CE51907C1F108F05BC08D7F65C018
:1013F0000330FDE51F0709F471C008F46DC0023623
:101400001D4509F073C08091690484FB222720F9EF
:1014100091E0922790FB84F967C080916904816014
:1014200063C08091690416C080916A0416C08091DF
:101430006A04826042C080916904806155C08091D5
:101440006904806251C08091690480644DC08091BC
:1014500069048860846048C0826081602EC0809189
:1014600069048E7F41C0809169048D7F3DC0809169
:101470006904877F39C080916A0414C0809169042F
:101480008F7E32C0809169048F7D2EC00E94E92C2E
:10149000809169048F7728C080916904877F8B7F52
:1014A00023C08D7F8E7F09C080916A04982F90950C
:1014B00091708E7F892B90FB81F980936A0416C00E
:1014C0000E94E92C8091690487FB222720F991E092
:1014D000922790FB87F908C061E001C060E08EE0D0
:1014E00090E00E94B13402C0809369046091690465
:1014F00010916A0484E090E00E94B134612F82E28E
:1015000090E00E94B1340E94E92C8AC306312CE598
:10151000120721F5809126078A7A91E009F490E07C
:1015200090930A02882311F065E301C069E28DEA15
:1015300096E00E944B210FC00631FCE51F0709F021
:1015400040C080910A02882309F48DC365E38DEAC7
:1015500096E00E9423210E94E12862C30B35FDE53D
:101560001F0749F158F401153CE51307B1F00F3D91
:101570001C4509F042C00E944F1952C30C359DE52D
:101580001907D9F00D351D45C1F580916A0482FB1C
:10159000882780F991E0892711C00E94E92CFFEF8C
:1015A00004E31CE0F15000401040E1F700C00000EF
:1015B0000E94892035C381E001C080E00E94A12CF7
:1015C0001CC08091260782720D3C9CE5190709F426
:1015D000D7C308F07AC3073CFCE51F0709F4BCC376
:1015E00008F051C3043C3CE5130709F4ABC308F011
:1015F0003CC3033C1C4509F4F0C2F7018281008121
:10160000D180882359F0802F9D2D0E94BA29182F50
:10161000682F802F9D2D0E94292C05C0802F9D2D85
:101620000E94FC2B182F20E3129FF001112436E0BA
:10163000D39EE00DF11D1124E00FF11DEE0FFF1FF1
:10164000E150F54F859194910E94A4178C01982E3A
:10165000F701D280A580A2943FE0A32280912307C6
:101660008770B9F0DD20A9F0812F807F803421F0D0
:1016700080E2800F883068F080916A0482FD09C0A2
:1016800082E00E94842C809123078770CC24C3942D
:101690008111C12CB12EB2949FE0B9228B2D90E024
:1016A0008C30910508F05CC2FC01EA5AFF4F0C94A3
:1016B0007635812F807F1F70882311F01295107F5F
:1016C000DD20B9F0112309F438C280E2800F8830A0
:1016D00010F0911006C080912607182B1093260752
:1016E00005C080912507182B109325070E94E1283B
:1016F00024C2802F0E941C07112309F431C2005E0E
:10170000083078F1992069F1109580912507182308
:101710001093250729C0812F807F1F70803211F020
:101720001295107F992021F0F1E09F16D9F149C060
:1017300080916A0482FF1BC0DD2069F0112339F01B
:1017400080912607182B109326070E94E12880E03D
:101750000E944E0705C280E00E941C07112309F475
:10176000FFC1812F0E94DA280E94E128F9C1DD2003
:1017700081F080912707AA2051F001E0A01207C054
:10178000182B181709F4ECC110932707E9C1812B16
:1017900010C0AA2021F021E0A21609F4E1C10E94A4
:1017A000D42827C0DD2041F035E03A1508F4D8C12F
:1017B000812F0E941207D4C184E08A1508F4D0C199
:1017C00018C0DD2049F0AA2099F3F701858180FF38
:1017D000B4C18F708583ECCFAA2059F0093309F08A
:1017E000BCC1FFEF17EE23E0F15010402040E1F7BD
:1017F000B2C1812F0E940B07B3C1812F86958695B8
:10180000837019F0813059F0ABC1DD2019F0C801A7
:10181000937002C080E090E00E949621A7C1DD2075
:1018200019F0C801937002C080E090E00E9480210E
:101830009DC1802FDD2019F00E941B3002C00E9444
:10184000622F0E94763092C1812F837009F069C0A7
:10185000D1108AC1902F929596959770990F990FF4
:10186000802F8F70882E912CA12CB12C092E04C0B2
:10187000880C991CAA1CBB1C0A94D2F704FF12C046
:101880004FE050E060E070E004C0440F551F661F59
:10189000771F9A95D2F7DB01CA0180959095A095A4
:1018A000B09503C080E090E0DC0116951695412FBD
:1018B0004370423019F1C8F4009163021091640240
:1018C0002091650230916602413059F088299929AA
:1018D000AA29BB29BC01CD01602371238223932354
:1018E0000AC0802A912AA22AB32ABC01CD01682904
:1018F00079298A299B290E94DF2C36C188299929B8
:10190000AA29BB290091630210916402209165020B
:1019100030916602BC01CD01602771278227932791
:10192000EACFDD2019F0812F817001C086958823D0
:1019300009F41AC1902F929596959770990F990F67
:10194000802F8F70882E912CA12CB12C092E04C0D1
:10195000880C991CAA1CBB1C0A94D2F704FF12C065
:101960004FE050E060E070E004C0440F551F661F78
:10197000771F9A95D2F7DB01CA0180959095A095C3
:10198000B09503C080E090E0DC0116951695412FDC
:1019900043704230D9F068F500912502109126027B
:1019A0002091270230912802413059F08829992945
:1019B000AA29BB29BC01CD01602371238223932373
:1019C0001EC0802A912AA22AB32A13C088299929E5
:1019D000AA29BB29009125021091260220912702F5
:1019E00030912802BC01CD016027712782279327FF
:1019F00006C0BC01CD01682979298A299B290E944A
:101A0000552CB2C01F70DD2039F0812F0E94BE2CF2
:101A1000802F0E941207A8C0802F0E940B07812FE1
:101A20000E945F2CA1C0802F32EF931609F443C0AF
:101A3000391538F090EF991659F0E1EF9E16B1F193
:101A400077C0F3EF9F16F1F124EF921659F170C0B1
:101A5000DD2019F134E03A1508F482C01F7181E0ED
:101A600090E0A0E0B0E0AC01BD0104C0440F551F00
:101A7000661F771F1A95D2F7809125029091260252
:101A8000A0912702B09128028A019B0108271927FB
:101A90002A273B27C901B80129C025E02A1508F4E7
:101AA0005FC0DCCF80916A0482FF23C0DD2029F073
:101AB000812F8F7130C0DD20D9F3812F8F710E946B
:101AC0005F2C4EC0DD2079F01F7181E090E0A0E036
:101AD000B0E0BC01CD0104C0660F771F881F991FBD
:101AE0001A95D2F703C060E070E0CB010E94552C3C
:101AF00037C0DD2099F01F71812F0E94BE2C80918C
:101B00006A0482FD07C038E0139FC001112483607E
:101B100080932307812F0E94BE2C22C081E00E9467
:101B2000842C81E08A15E0F482E00E94842C18C0A5
:101B3000DD2029F0AA2009F4BBCF802F09CEAA20EE
:101B400009F4BBCF893349F49FEFE7EEF3E09150FE
:101B5000E040F040E1F700C00000802F0E941C0729
:101B600088EF8B0D843010F40E94AC21CC20A9F0BA
:101B70008091230780FD11C0F7011282859585951C
:101B800085950E94BE2CC7010E946E088091230794
:101B90008595859585950E945F2C85E0F701DE018E
:101BA000119601900D928A95E1F789819A810E94A0
:101BB000FC2B9A8100E3809FF001112416E0919F95
:101BC000E00DF11D11248981E80FF11DEE0FFF1FBB
:101BD000E150F54F85919491F4C08091500480FFBD
:101BE000ABC08E7F8093500460915004709151047B
:101BF00080915204909153040E947F2D0E94CF2225
:101C000080919C02816080939C028FEF90E7E2E0DC
:101C100081509040E040E1F700C000000E94FE2C9F
:101C200080912307877009F4CCC0F7018281882353
:101C300009F4C7C080916A0482FDC3C082E02A967D
:101C40000FB6F894DEBF0FBECDBFDF91CF911F91CD
:101C50000F91FF90EF90DF90CF90BF90AF909F904B
:101C60008F900C94842C69E272CC053CFCE51F0734
:101C700009F46DC0063C1C4509F0BFCC46E35FE2A9
:101C80006FE37FE281C00A3C3CE5130709F46EC0B4
:101C900070F4083CECE51E0709F463C0093C1C45E0
:101CA00009F0ABCC4AE25FE26EE17FE26DC00B3C33
:101CB0002CE5120709F45FC00C3C1C4509F09DCCD3
:101CC00041E95DE262EA7DE25FC0023D8CE5180712
:101CD00009F466C098F40F3CECE51E0709F45AC0FD
:101CE00008F455C0003D2CE5120709F456C0013D2B
:101CF0001C4509F082CC6EE089E060C0053D8CE5B2
:101D0000180709F453C060F4033DECE51E0709F41D
:101D10004AC0043D1C4509F070CC61E088E14BC02D
:101D2000063D2CE5120709F444C00E351D4509F0A7
:101D300064CC6AE285E242C081608093500461E035
:101D4000869539C040EE50E369EE70E31DC049EE60
:101D500050E360EE70E318C04FE35FE266E37FE2BA
:101D600013C04EE15FE26AE27FE20EC046E05FE24E
:101D700062E17FE209C042E15FE266E07FE204C027
:101D800042EA5DE261E97DE20E94C92249CF61E059
:101D900081E011C065E082E011C068E086E00EC01D
:101DA00064E18FE00BC067E185E108C062E289E190
:101DB00005C061E083E20E94A03032CF0E94B722CA
:101DC0002FCF2A960FB6F894DEBF0FBECDBFDF919E
:101DD000CF911F910F91FF90EF90DF90CF90BF9028
:101DE000AF909F908F900895CF93DF93CDB7DEB7DC
:101DF00064970FB6F894DEBF0FBECDBF84B7877F60
:101E000084BF0FB6F894A895809160008861809394
:101E10006000109260000FBE90E080E80FB6F8946A
:101E200080936100909361000FBE85B7806885BF85
:101E300085B7806885BF86E595E190930902809318
:101E400008020E947D270E949C278091E200846006
:101E50008093E2007894809193048823A1F01091FC
:101E6000E9001F709091EC00892F817090FD80E84F
:101E7000182B1092E9008091E80083FD0E946C24E9
:101E80001F701093E90082E084BD93E095BD9AEF46
:101E900097BD80936E0010920B0210920C0210926C
:101EA0000D0210920E020E94F5168093040180919B
:101EB0000401882321F0109251018BE103C08BE1D2
:101EC00080935101809352010E94F51681110E9466
:101ED0005F328091040180910401811102C094E07D
:101EE00001C090E09093180284E0891B8093170250
:101EF00004E911E098E9E92E91E0F92ED8018D91DD
:101F00008D018F3F11F00E948D17E016F106B1F799
:101F10000CE911E082EAE82E81E0F82EF8018191C7
:101F20008F018F3F11F00E948D17E016F106B1F777
:101F300088E0EAE1F2E0DF01082F1D920A95E9F757
:101F4000EFE0F2E0DF011D928A95E9F780E090E092
:101F50000E94AB34893E9E4F11F00E944F1982E0DF
:101F600090E00E949D34809359020E943E19909304
:101F70006A04809369040E94C319EFE3FCE9319776
:101F8000F1F700C000000E94C3190E94F5168111EC
:101F900002C0E4E001C0E0E0F0E0E65EFD4F8081D9
:101FA00081FF08C06FEF7FEF80E090E00E94CF34A8
:101FB0000E94892083E090E00E949D34682F70E0A9
:101FC00080E090E00E94DF2C0E94F516811102C093
:101FD0000E9462320E94F516882311F080E001C051
:101FE00082E08093540280E88093A2040E94F33040
:101FF0006DE070E087E091E00E941724892B09F0E2
:1020000043C08091540263E070E081FD3AC084E0F7
:1020100091E00E941724892BB9F56DE070E084EF00
:1020200090E00E941724892B79F50E94E220DC01C0
:10203000CB01805A9541AF4FBF4F80935504909389
:102040005604A0935704B0935804E5EAF4E080E006
:1020500092E0DF018C011D9201501040E1F7F093F6
:10206000AC06E093AB068FEF9FEF9093A4048093B0
:10207000A30481E080935A0480935904109255027E
:1020800003C081E091E0C5CF8091190281113BC06E
:1020900080E090E00E94AB34893E9E4F21F00E9488
:1020A0004F190E94B32D88E090E00E94A534609300
:1020B0005004709351048093520490935304809180
:1020C0009C02836080939C026E7F71F40E94B32D0A
:1020D00088E090E00E94A53460935004709351040E
:1020E00080935204909353040E94652D0E94CF2246
:1020F0008091500480FF04C060E086950E94A0306B
:1021000081E08093190285E091E0909361048093CF
:10211000600444244394512C1AE0812E912CA12C6C
:10212000B12C80919304853009F048C0A0E4FA2EC8
:1021300000E112E180919304853009F03BC0809169
:102140009304843029F10E9447221092640428E10C
:1021500030E00FB6F894A895209360000FBEF0927F
:10216000600083B7817F846083BF83B7816083BF52
:102170007894889583B78E7F83BF0FB6F894A8951F
:1021800080916000886180936000109260000FBEB3
:1021900080919204882309F4CDCF0E94C319EAE10B
:1021A000F2E08191811162C462E272E06E177F07F2
:1021B000C1F7C0CF0E94E92C0E94AC210E94C31934
:1021C000782E81110E94E220AAE1B2E0EAE5F2E075
:1021D00000E010E0C02EDD9081918D2549F1E12CC9
:1021E000FF24F394982F9F21F1F00E94F516882385
:1021F00099F0EF82C886DF2081E009F480E08987CA
:102200000E94EE208160782F9B878A874F815885B6
:1022100069858B850E94C607F801E65AFD4F8081CB
:10222000F826F0821AC0E394FF0C76E0E712DACFCA
:102230000F5F1F4F0830110569F68FEF8C878D8770
:102240001E860E94EE208160782F988B8F874C85A8
:102250005D856E8588890E94C60780919B028823D0
:1022600009F4CFC080919A02E0915004E695E81BF2
:10227000E0939602823059F4F0E0EB5DFE4FE4917A
:102280000E2F10E0F0E9EF2EFFE1FF2E6BC086303D
:1022900059F4F0E0EE5DFE4FE4910E2F10E0E0E81F
:1022A000EE2EEFE1FE2E5EC0893061F4E695F0E09F
:1022B000E15EFE4FE4910E2F10E07EE2E72E7EE11C
:1022C000F72E50C08F3061F4E695F0E0E45EFE4FEB
:1022D000E4910E2F10E062E9E62E6DE1F62E42C089
:1022E000853159F4F0E0E75EFE4FE4910E2F10E0E7
:1022F0005CE0E52E5DE1F52E35C08831F9F08332E2
:1023000049F4E7E1F1E00591149140E4E42E4FE156
:10231000F42E28C08432C9F08532F1F48E2F63E0A8
:102320000E944835E92FF0E0EC5EFE4FE4910E2F5D
:1023300010E039E6E32E3EE1F32E14C008E210E08F
:1023400029E7E22E2CE1F22E0DC004EF11E09AE312
:10235000E92E9CE1F92E06C000ED17E086EAE82E92
:102360008BE1F82E80919702882361F010929702FA
:102370000E94BA1990939502809394021092990248
:10238000109298020E94BA19E0919402F09195027D
:102390009C012E1B3F0B2F3F3F4798F520912402B5
:1023A0002223B1F0109224022091220230912302C4
:1023B000821B930B8F3F9F4758F4205D3A48309320
:1023C00023022093220280919C02886080939C02C9
:1023D000C0909802D09099020E0F1F1F1093950283
:1023E0000093940284E992E0F701099580919802A4
:1023F00090919902892B29F4CD2819F081E08093DE
:10240000240280915A04882309F43EC28091560226
:10241000909157020E94D320C29708F431C10E94C4
:10242000EE20909357028093560285EA94E09093B1
:10243000AC068093AB060E94F516882309F4E1C030
:1024400084E491E00E94712340912502509126027C
:102450006091270270912802CB01AA27BB27009721
:10246000A105B10521F0AC01BD0180E101C080E012
:10247000052F162F272F33270115110521053105AB
:1024800019F0885FB901A8018A019B01F4E0369533
:10249000279517950795FA95D1F70115110521058F
:1024A000310519F08C5FB901A8018A019B01E2E0B6
:1024B0003695279517950795EA95D1F701151105DA
:1024C0002105310519F08E5FB901A8017695679550
:1024D00057954795452B462B472B09F08F5F813049
:1024E00059F038F0823059F0833081F489E291E07C
:1024F00008C08CE391E005C086E391E002C080E370
:1025000091E00E94712381E00E9487228091330232
:102510000E949723FC01019620812032D9F3CF013C
:102520000E947F2382E591E00E9471238091320214
:102530000E949723FC01019620812032D9F3CF011C
:102540000E947F238EE491E00E94712380913002EB
:10255000909131022091110130911201821793075D
:1025600039F420912F02203219F429E232E037C0E9
:10257000909312018093110120E220932F026C01AD
:10258000E12CF12C10922E020EE2202E02E0302ED1
:1025900000E010E0C701B601A50194010E941735C3
:1025A000605D603319F40115110539F0C114D104CF
:1025B000E104F10419F460E201C060E3D1016E931B
:1025C0001D01C701B601A50194010E9417356901DB
:1025D0007A010F5F1F4F05301105E1F6C6CFC90123
:1025E0002F5F3F4FFC0140814032C9F30E947F239F
:1025F0008CE491E00E947123809113010E94F122EA
:102600003FC08091AB069091AC06855A94409C01E6
:102610003E5F2130324028F020E032E0281B390BA9
:1026200002C020E032E06091A3047091A404DC01B8
:10263000AB55BB4FAC01280F391F42175307E0F4CD
:10264000FA01E81BF90BEC5AFE4FE491FC91EF17ED
:1026500079F0EC93FA0115E0F695E7951A95E1F714
:10266000820102C0000F111FEA95E2F7602B712B67
:102670004F5F5F4F1196E1CF7093A4046093A30462
:1026800080915A04882309F4E4C02091A304309176
:10269000A4042115310509F4DCC080915502811193
:1026A000D8C0082F10E07201082E02C0EE0CFF1CEB
:1026B0000A94E2F7A9014E215F21452B11F48F5FA7
:1026C000F0CF90915402980165E0220F331F6A9574
:1026D000E1F790FD12C08295880F807680931601F5
:1026E000220F232F221F330B319520931901815E76
:1026F0008093170110921A0112C045E03695279574
:102700004A95E1F7220F220F220F20931601109213
:102710001901295F2093170183E080931A0124E6B1
:1027200030E047E050E064E171E088E70E94AA31C0
:10273000892B09F08EC08091540280FD22C0A8012F
:1027400095E0440F551F9A95E1F74B555B4F04E612
:1027500010E020E230E060E488E70E94D131892B6C
:1027600009F077C00E946122E094F0948091A30464
:102770009091A404E822F922F092A404E092A30428
:1027800068C080E2E4E3F2E0DF011D928A95E9F798
:10279000180185E0220C331C8A95E1F7E6EAF1E0A6
:1027A000FC8BEB8B42EA51E0AB89BC898D91BC8BF1
:1027B000AB8BFA019191AF019101290F311D890174
:1027C0000B551B4F1A8B098B90E08C5C9D4FFC01C5
:1027D00007E09F01281B390BC42C01C0CC0C2A95A3
:1027E000EAF769897A89D12CDB011D91BD011C2191
:1027F000202F2D192770622E022E000C330BB12FC3
:1028000001C0BB0F6A94EAF76B2E3195219531090F
:102810002770332701C016952A95EAF7612A10819F
:10282000612A6082D39418E0D112DECF0150319634
:102830000F3F79F62AEA31E06B897C892617370742
:1028400009F0B2CF04E610E020E230E044E352E0C9
:1028500082CF809159048823B9F00E94E220009130
:102860005504109156042091570430915804DC010E
:10287000CB01801B910BA20BB30B8F3F9F4FAF4F30
:10288000BF4710F40E94472271100E94612286E027
:10289000EFE2F7E0DE01119601900D928A95E1F7E3
:1028A000E0903107F0903207009133071091340720
:1028B00010923107109232071092330710923407AA
:1028C000E11003C0FF2009F451C080912D079091C1
:1028D0002E070E94D3209C0190912907992309F487
:1028E000DBC02333310508F441C09F3F19F09F5FDF
:1028F00090932907EE2061F00E94FB2F1E1414F024
:102900009FEF01C091E0899F802D112480933107B2
:10291000FF2061F00E94FB2F1F1414F09FEF01C0F5
:1029200091E0899F802D11248093320730913107E7
:102930003323E1F0209132072223C1F045EB340329
:10294000C0011124992319F09093310703C081E04D
:102950008093310765EB2603C0011124992319F0F8
:102960009093320703C081E080933207011103C0C6
:10297000112309F451C080912B0790912C070E94DC
:10298000D3209C0190912807992309F48AC0253609
:10299000310508F441C09F3F19F09F5F90932807CD
:1029A000002361F00E94D92F101614F09FEF01C090
:1029B00091E0899F802D112480933307112361F0CA
:1029C0000E94D92F111614F09FEF01C091E0899F4A
:1029D000802D112480933407309133073323E1F0A5
:1029E000209134072223C1F075EB3703C001112475
:1029F000992319F09093330703C081E08093330744
:102A000035EB2303C0011124992319F09093340767
:102A100003C081E0809334078091310781110BC09E
:102A200080913207811107C080913307811103C063
:102A30008091340781110E947630EB82FC820D83F5
:102A40001E8386E0FE013196AFE2B7E001900D9261
:102A50008A95E1F70E94AC2190915802891709F4F8
:102A600060CB0E94AC21809358025BCB09BD19BD9D
:102A700009B400FEFDCF8091D8008F7D8093D800EF
:102A80008091E00082608093E0008091E00081FD11
:102A9000FCCF0E94E92C4ECB2D32314008F027CFDD
:102AA00065CF2D32314008F078CFB6CF80E0089561
:102AB0009091690492FF0DC0282F2871283019F4D5
:102AC000877F846006C0282F2471243011F48B7F07
:102AD000886093FF0DC0282F2871283119F4877E54
:102AE000846106C0282F2471243111F48B7E886103
:102AF00020916A0420FF0DC0382F3871383019F446
:102B0000877F816006C0382F3171313011F48E7F9C
:102B1000886021FF0DC0282F2871283119F4877E85
:102B2000816106C0282F2171213111F48E7E8861C8
:102B300094FD877E0895AF92BF92CF92DF92EF927D
:102B4000FF920F931F93CF93DF937C015B016A0188
:102B5000809193028A3018F001E010E002C00AE090
:102B600010E0C1E0D0E0F894B501C701F601099585
:102B70007894811115C021960C171D0794F0CC9FF5
:102B80009001CD9F300D300D112480E090E045E3A1
:102B90004A95F1F70000019682179307C1F7E3CF3A
:102BA00081E0DF91CF911F910F91FF90EF90DF9027
:102BB000CF90BF90AF900895CF93DF93CDB7DEB79E
:102BC00028970FB6F894DEBF0FBECDBF85E0E0E5D5
:102BD000F4E0DE01119601900D928A95E1F7809163
:102BE0009A0290919B02A0919C028E839F83A8875A
:102BF000288540918F0250919002609191027091CE
:102C000092023FB7F8948091650490916604A09178
:102C10006704B09168043FBF841B950BA60BB70BEC
:102C200084369105A105B10510F4222329F1809184
:102C30003C0190913D0182589D4F40913B0150E0F5
:102C40004930510510F048E050E0BE016F5F7F4F02
:102C50000E94A53583E090E00E946C33892B11F02F
:102C600080E00DC00E94E22060938F02709390027A
:102C7000809391029093920210929C0281E0289698
:102C80000FB6F894DEBF0FBECDBFDF91CF91089590
:102C9000EF92FF921F93CF93DF9300D000D01F924B
:102CA000CDB7DEB77B0180E090E00E946C33892BCA
:102CB00009F065C04091200150E04115510511F027
:102CC00041E050E0609121017091220162587D4FF6
:102CD000CE0105960E94A53540917602509177026B
:102CE00060917802709179022FB7F8948091650411
:102CF00090916604A0916704B09168042FBF841B73
:102D0000950BA60BB70B84369105A105B10538F4D8
:102D10008FE792E00E9400249D81891791F181E064
:102D200090E00E946C33892BA1F440912A0150E07D
:102D30004530510510F044E050E060912B01709156
:102D40002C0162587D4FCE0101960E94A53511E0FD
:102D500001C010E08FE792E00E94002491E02D81F5
:102D6000281390E0192341F10E94E220609376023B
:102D70007093770280937802909379020FC010E0ED
:102D800001C011E080917F0290918002A0918102A8
:102D9000B091820289839A83AB83BC83112361F053
:102DA00089819A81AB81BC81809372029093730276
:102DB000A0937402B0937502809172029091730295
:102DC000A0917402B0917502F70180839183A28370
:102DD000B383812F0F900F900F900F900F90DF9182
:102DE000CF911F91FF90EF90089580917102811112
:102DF00018C088EC9091E30097FD0AC0EFE3FCE96E
:102E00003197F1F700C000008150A1F782E001C0C6
:102E100081E080937102823021F40E947D2710921C
:102E2000930481E090917102913009F080E008955F
:102E30000F931F930E94F516882321F01F910F9185
:102E40000C94E2200E94E22000910B0210910C02EF
:102E500020910D0230910E02600F711F821F931F8F
:102E60001F910F910895CF93DF9300D000D0CDB77D
:102E7000DEB740917A0250917B0260917C027091A2
:102E80007D022FB7F8948091650490916604A0911B
:102E90006704B09168042FBF841B950BA60BB70B7A
:102EA00084369105A105B10580F10E941817DC0157
:102EB000CB010296A11DB11D89839A83AB83BC838C
:102EC000809132019091330182589D4F40913101A0
:102ED00050E04530510510F044E050E0BE016F5F16
:102EE0007F4F0E94A53582E090E00E946C33892BD1
:102EF00011F080E00BC00E94E22060937A02709390
:102F00007B0280937C0290937D0281E00F900F9072
:102F10000F900F90DF91CF910895F894E82FE295EC
:102F2000EF70F0E031A1282F2F7081E090E001C018
:102F3000880F2A95EAF7982F9095932391A392A151
:102F4000892B82A378940895CF93DF9382389105DB
:102F500069F1B0F48133910509F46FC048F4893206
:102F6000910509F465C08A32910509F46BC08AC0E5
:102F70008533910509F457C089339105B9F082C0B2
:102F8000833E910571F138F4803E9105B1F0823EA7
:102F9000910511F177C0863E9105B9F1873E910503
:102FA000C9F1843E910509F06DC024C020916904E7
:102FB00020FD53C021FD51C065C08091690480FD92
:102FC00046C080916A0480FF48C08091690484FDF6
:102FD00050C183EE90E04FC18091690482FF3AC0F6
:102FE000F4CF8091690482FD35C080916A0480FD30
:102FF00034C0EBCF80916A0481FF35C080916904B1
:1030000084FD37C187EE90E036C18091690483FF6B
:1030100027C0F4CF8091690483FD22C080916A04A7
:1030200081FD21C0EBCF8091690485FD1FC021C0C7
:103030008091690485FD1DC019C08091690486FDD9
:103040001BC01DC08091690486FD19C015C089E3AD
:1030500090E011C182EE90E00EC180EE90E00BC1D5
:1030600086EE90E008C184EE90E005C189E290E030
:1030700002C185E390E0FFC08AE290E0FCC081E3FA
:1030800090E0F9C0811531E5930708F069C081151A
:1030900040E59407F0F09C0174E0369527957A9509
:1030A000E1F7922F9370482F437021E030E002C087
:1030B000220F331F4A95E2F73C68392B982F9F70F7
:1030C0009695969540E2949FC0011124822B932BF4
:1030D000D2C0883E910568F5803E910508F0CBC0CE
:1030E000883A9105B8F4853A910548F0855AE82F59
:1030F000F0E0E655FE4F808190E09064BCC08130E6
:10310000910509F4B3C008F4B4C08430910508F403
:10311000B0C0B1C08F3B910508F0ABC0885AE82F12
:10312000F0E0EE0FFF1FE355FE4F80819181946424
:10313000A2C0811520E2920758F4811531E093076F
:1031400008F099C08D3E910508F493C0906593C036
:10315000811540E4940708F48CC09F70906A8BC07E
:10316000811525E5920708F042C0811534E59307E3
:1031700028F0982F8827846F906A7DC0811543E5D9
:103180009407B0F09C012370332741E050E002C067
:10319000440F551F2A95E2F7282F2695269580E2A1
:1031A000289F90011124CA01822B932B9A6863C037
:1031B000811522E5920728F4982F8827816F906A5D
:1031C0005AC09C012370332741E050E002C0440FF5
:1031D000551F2A95E2F7282F2695269580E2289FED
:1031E00090011124CA01822B932B9C6844C0EC01EE
:1031F000811539E59307A8F48115984528F09C2F8F
:103200008827806F906A37C0C11586E5D80788F592
:103210008C2F0E9458158F7190E0982F882790620C
:103220002AC081152AE5920790F48C2F8F700E9496
:10323000581594E0D695C7959A95E1F7CF70D0E0F0
:10324000DC2FCC27D0699E01282BC90114C09056D1
:103250008115904270F48D2F8F710E945815282F80
:103260002F71CE0199279062922B05C081E090E0EA
:1032700002C080E090E0DF91CF910895CF9384E089
:1032800090E00E949D34C82F82E290E00E949D341D
:103290002C2F30E0A901582BCA01CF91089569EE77
:1032A0007EEF80E090E00E94CF3460E082E090E02A
:1032B0000E94B13460E083E090E00E94B13410924B
:1032C000630210926402109265021092660260E03E
:1032D00084E090E00E94B13460E082E290E00E94DD
:1032E000B13460E085E090E00E94B13460E086E0B7
:1032F00090E00E94B1346FEF87E090E00E94B1341B
:1033000040E050E0BA0188E090E00E94C33460E001
:103310008DE090E00E94B13440E050E0BA0188E1D5
:1033200090E00E94C33460E087E190E00E94B134F5
:1033300040E050E0BA018CE190E00E94C33460E0CC
:1033400070E080E290E00E94CF3440E050E0BA01AB
:1033500088E190E00E94C33440E050E0BA018FE081
:1033600090E00E94C33440E050E0BA0183E190E075
:103370000C94C3340E94F51681110C94EE200E9427
:103380001817CB0108957F928F929F92AF92BF92B0
:10339000CF92DF92EF92FF920F931F93CF93DF9321
:1033A000CDB7DEB72C970FB6F894DEBF0FBECDBFFA
:1033B000AE014F5F5F4F7A0188E0DA011D928A9576
:1033C000E9F704E911E06A0188E9A82E81E0B82E46
:1033D00088248394912CF80180818F3F09F441C0A7
:1033E000F894E82FE295EF70F0E021A18F70A4012E
:1033F00002C0440F551F8A95E2F7CA01922F982BFD
:1034000091A392A18095892382A3789400C0ECE9CE
:10341000F1E0712C31E021912F3F89F0A22FA2958C
:10342000AF70B0E090968C9190E02F7002C09595AF
:1034300087952A95E2F780FD02C0832F01C080E0C6
:10344000782A330F51E0E23AF50729F7D8018C9139
:103450008F3F11F00E948D17B0EABA95F1F7F6018F
:1034600070820F5F1F4FFFEFCF1ADF0AA016B10661
:1034700009F0B1CF48E050E0B7018FE092E00E9440
:1034800098358C01892B41F088E0F701AFE0B2E07C
:1034900001900D928A95E1F7F0901802011511053F
:1034A00049F081E0809369020E94EE2090936802C7
:1034B00080936702809169028823B9F08091670246
:1034C000909168020E94D320059778F0AFE0B2E0B7
:1034D000EF2DF0E0E65EFD4F83E192E02D91219328
:1034E0008A179B07D9F7109269020115110509F097
:1034F00012C10E94F516E0911802882309F477C0E2
:1035000019861A861B861C860E2F10E0065E1D4F3C
:10351000809193028A3058F448E456E1BE01675F17
:103520007F4FC8010E949B158823A1F10AC080919A
:103530006A0290916B020E94D320843F914060F711
:103540003AC043E357E1BE01675F7F4FC8010E9465
:103550009B158823F9F04CED55E1BE01675F7F4F65
:10356000C8010E949B158823A9F0109293028091B4
:10357000170290E044E050E0BE01675F7F4F865E37
:103580009D4F0E94983521E020937002892B01F510
:1035900000E0C3C0809193028F3F19F08F5F80934A
:1035A0009302809193028A3010F30E94EE20909350
:1035B0006B0280936A0280917002882349F3FE01B6
:1035C000399684E0DF011D928A95E9F71092700226
:1035D000E0911702F0E0E65EFD4F89859A85AB85A4
:1035E000BC8580839183A283B38301E096C0F0E021
:1035F000E65EFD4FF89484E0AFE7B2E001900D92F3
:103600008A95E1F78FE792E00E94002480937E0282
:103610007894F894C0908302D0908402E090850260
:10362000F090860280916C0290916D02A0916E02E2
:10363000B0916F02C816D906EA06FB06D1F0C09217
:103640006C02D0926D02E0926E02F0926F020E94C4
:10365000F51681110EC00E94E220C61AD70AE80AA8
:10366000F90AC0920B02D0920C02E0920D02F09285
:103670000E027894F89480918E02882309F449C050
:1036800080FF24C0909187028091500490FF09C070
:1036900081608093500460E0892F86950E94A0305D
:1036A00015C08E7F809350040E94CF2280919C028F
:1036B000816080939C02BFEFE0E7F2E0B150E04010
:1036C000F040E1F700C000000E94FE2C80918E02C5
:1036D00081FF09C020E040918A02609189028091B7
:1036E00088020E94642E80918E0282FF09C0809120
:1036F0008D02882319F00E94D62202C00E94CF2298
:1037000080918E0283FF03C081E080939702109224
:103710008E02789402C001E010E0802F2C960FB644
:10372000F894DEBF0FBECDBFDF91CF911F910F91F7
:10373000FF90EF90DF90CF90BF90AF909F908F90D1
:103740007F9008950895809170040895089580935E
:103750006B0470936D0460936C04809193048430C7
:1037600001F582E08093E9008FEF9091E8008150AD
:1037700095FD06C095ED9A95F1F700008111F5CF02
:103780008091E80085FF0DC040E050E063E070E00C
:103790008BE694E00E9440248091E8008E7780932D
:1037A000E8000895BC0184E00C94A71BBC0183E0F1
:1037B0000C94A71B22E02093E9002FEF3091E80042
:1037C000215035FD06C035ED3A95F1F70000211185
:1037D000F5CF2091E80025FF0BC040E050E066E007
:1037E00070E00E9440248091E8008E778093E8008A
:1037F0000895CF93DF9320915601222339F0209131
:10380000690427FF03C060E222E002C068E021E013
:103810002093E9002FEF3091E800215035FD06C0DC
:1038200035ED3A95F1F700002111F5CF2091E80030
:1038300025FF1DC0EC0180915601811105C040E0BB
:1038400050E068E070E003C070E040E050E0CE017E
:103850000E9440248091E8008E778093E80080E207
:10386000FE01A1E7B4E001900D928A95E1F7DF91A6
:10387000CF9108950F931F93CF93DF93EC0100E056
:1038800010E080915501282F30E00217130724F52E
:10389000909153019801290F311DA901440F551F23
:1038A000240F351F20563D4F869590E04C81081718
:1038B00019071CF4442331F002C0411103C04091A8
:1038C000530401C040E060915204809151040E9471
:1038D000CB2D0F5F1F4FD5CF0E94FE2C8C8190E027
:1038E0000196817099278C83DF91CF911F910F9161
:1038F00008958F929F92AF92BF92CF92DF92EF92F4
:10390000FF920F931F93CF93DF938C01FC014481AF
:10391000C42FD0E09E01DE010E9439359B01AC012D
:103920000E9404356B017C01E0E2F0E0EC1BFD0B32
:10393000A5E5B0E09B01AC010E9404354B015C01A0
:103940009F01DF010E947C359B01AC010E940F3575
:103950009B01AC012C0D3D1D4E1D5F1DC501B40129
:103960000E941735C22FD22F2A3228F4F3E02F9F5E
:10397000900111240DC025E530E02C1B3109C9014F
:10398000880F991F280F391F37FF02C02F5F3F4F45
:1039900035952795C22FC095F12C85E5E82EED1AB7
:1039A00080915501F816C8F4F1FC02C08E2D01C0BB
:1039B0008D2F909153012F2D30E0290F311DA9013A
:1039C000440F551F240F351F20563D4F4C2F60913B
:1039D00052040E94CB2DF394E3CF0E94FE2CF801F9
:1039E0008481811102C091E003C0803219F49FEFFD
:1039F0009093500190915001890FF8018483DF91D9
:103A0000CF911F910F91FF90EF90DF90CF90BF90DB
:103A1000AF909F908F9008951F93CF93DF93EC0109
:103A20008C81811109C081E08C8310929E0292E00A
:103A300090934F0180934E018091530190915401D6
:103A4000891770F4E82FF0E09F01220F331FE20F77
:103A5000F31FE056FD4F1182108212828F5FF0CF6C
:103A600010E0609155011617C0F5E12FF0E070E00D
:103A7000CF010E94623520915301820F20919E0256
:103A8000022E000C330B90E0E217F307CCF02091EC
:103A90004F01022E000C330B2E173F078CF09C01B8
:103AA000220F331F820F931F9C0120563D4F4091E0
:103AB000530460915204809151040E94CB2D0BC09D
:103AC000FC01EE0FFF1F8E0F9F1FFC01E056FD4F04
:103AD0001182108212821F5FC4CF0E94FE2C80913F
:103AE0004E0120919E02280F20939E0290914F013B
:103AF000980F90934F0119165CF4022E000C330BB3
:103B00004091550150E0415051092417350734F0D8
:103B1000819580934E01813009F41C82DF91CF9111
:103B20001F9108957F928F929F92AF92BF92CF92F2
:103B3000DF92EF92FF920F931F93CF93DF93EC01ED
:103B40008A8180FF03C0BB24BA9402C0BB24B39413
:103B50008C8181110DC081E0B81206C080915501A1
:103B6000815080939D0202C010929D0281E08C835F
:103B7000A12C46E3842E90905501A91408F041C071
:103B800080915301CA2CD12C8601080F111DC80148
:103B9000880F991F080F191F00561D4FF801118239
:103BA0001082128234E0E32EF12C712C80919D0260
:103BB000870D87332CF0682D0E945435892F02C061
:103BC00087FD890D082E000C990BC816D90691F4B3
:103BD000809153048E9DA0018F9D500D1124559509
:103BE00047955595479598016091520480915104ED
:103BF0000E94CB2D7B0CF1E0EF1AF108B9F6A394EB
:103C0000BACF0E94FE2C80919D0291E0B9120EC0A5
:103C1000811107C080915501815080939D021C82C3
:103C20000FC0815080939D02BC820AC090E0019633
:103C30006091550170E00E94623580939D028C83F3
:103C4000DF91CF911F910F91FF90EF90DF90CF9078
:103C5000BF90AF909F908F907F900895FF920F93A9
:103C60001F93CF93DF93EC01F12C0FEF10E06091E5
:103C70005501F616F0F4809153012F2D30E0280FF6
:103C8000311DC901880F991F280F391F20563D4F3C
:103C900070E0C8010E946235962F8C8140915304D8
:103CA00060915204F99E800D11240E94CB2DF39453
:103CB000DECF0E94FE2C9A818C8190FF02C08F5F24
:103CC00001C081508C83DF91CF911F910F91FF90A4
:103CD00008957F928F929F92AF92BF92CF92DF9280
:103CE000EF92FF920F931F93CF93DF93FC0182809B
:103CF000748081E08483E4E5F3E09490E3EDF3E005
:103D0000E491A12CF5E0BF2ECC24CA94D12CE91962
:103D10000E2F10E080915501A81608F0A2C0EA2CE1
:103D2000F12C22E0281568F0BE9CF001BF9CF00D3C
:103D30001124EE5BFC4F80915104808380915204EA
:103D4000818371100AC0BE9CF001BF9CF00D11244C
:103D5000EE5BFC4F138212826AC0BE9CE001BF9CE6
:103D6000D00D1124CE5BDC4F8B818823F9F081507C
:103D70008B832FEF829FC00111246C8170E00E9421
:103D80002434FB01FF27EC5AFC4F8491E82FE919FA
:103D90002FEFE29FC0011124B8010E9424348091CA
:103DA0005304689FB00111247A8341C00E94843477
:103DB000209153042695215830E0A901440F551F46
:103DC000322F2227240F351F232F332782179307E3
:103DD00074F582E0881588F40E948434B6010E944C
:103DE000623588830E948434209152042695622F84
:103DF00070E00E946235280F2983BE9CF001BF9CB1
:103E0000F00D1124EE5BFC4F12828091530484313B
:103E100020F0893C18F088EC01C084E1BE9CF001E0
:103E2000BF9CF00D1124EE5BFC4F84838383809153
:103E300053019701280F311DC901880F991F280FC1
:103E4000391F20563D4FBE9CF001BF9CF00D112440
:103E5000EE5BFC4F4281618180810E94CB2DA39457
:103E600059CFDF91CF911F910F91FF90EF90DF908D
:103E7000CF90BF90AF909F908F907F900C94FE2C2E
:103E80000F931F93CF93DF9300D01F92CDB7DEB770
:103E90008C0180919F0281110AC09E012F5F3F4FCC
:103EA00048E76FEF0E94CB2D8A8180939F02F80133
:103EB0008481813051F028F0823061F440919F027A
:103EC0000AC080919F0240E007C060919F0240E0DD
:103ED00080E003C040E080E060E00E944A2DF801ED
:103EE000848190E0019663E070E00E9462358483F3
:103EF0000F900F900F90DF91CF911F910F91089528
:103F0000CF93DF93EC01E0E5F4E0438162818C81A3
:103F10000E94482F8C818F5F8C83DF91CF91089511
:103F2000CF93DF93EC01EC81F0E0EC5AFC4F44912D
:103F3000E0E5F4E0628181810E94482F8C818F5FEF
:103F40008C83DF91CF9108952091E4003091E500BA
:103F500095E64091EC00842F817040FF23C0809152
:103F6000E80080FD1DC080919304882399F085307E
:103F700099F08091EB0085FD11C04091E4005091D3
:103F8000E5002417350729F3915011F09A01E1CF8C
:103F900084E0089582E0089583E0089581E0089523
:103FA00080E008954091E80042FFDDCF08958091C0
:103FB000950487FF11C08091E80082FD05C08091C3
:103FC00093048111F8CF11C08091E8008B770BC06A
:103FD00080919304882349F08091E80080FFF8CF16
:103FE0008091E8008E778093E8000895982F9730AD
:103FF00068F59093E900981739F07091EC002091E2
:10400000ED005091F00003C0242F762F50E021FDE9
:1040100002C09F5FECCF3091EB003E7F3093EB000E
:104020003091ED003D7F3093ED003091EB00316039
:104030003093EB007093EC002093ED005093F00070
:104040002091EE0027FDE5CF80E008958F708093EA
:10405000E90081E0089520919B0430919C0426178B
:10406000370748F06115710539F42091E8002E7783
:104070002093E80001C0B901FC0120E06115710541
:1040800079F1809193048823F1F18530F1F18091E9
:10409000E80083FD3CC08091E80082FD2EC0809145
:1040A000E80080FFEBCF2091F3008091F20090E0D8
:1040B000922B6115710551F08830910538F42191EA
:1040C0002093F100615071090196F3CF21E0089728
:1040D00009F020E08091E8008E778093E800CECF51
:1040E0002111CFCF0AC080919304882361F08530DD
:1040F00061F08091E80083FD0AC08091E80082FFB2
:10410000F2CF80E0089582E0089583E0089581E091
:10411000089581E08093E00080E28093D8001092BF
:10412000C9008FE19EE40197F1F700C0000087E02D
:1041300090EBDC018093350790933607A093370707
:10414000B09338079CE088E10FB6F894A895809367
:1041500060000FBE90936000FFCF78941F920F9283
:104160000FB60F9211248F939F93AF93BF938091BB
:10417000650490916604A0916704B091680401966B
:10418000A11DB11D8093650490936604A0936704FC
:10419000B0936804BF91AF919F918F910F900FBE24
:1041A0000F901F9018959C014FB7F894809165046B
:1041B00090916604A0916704B09168044FBF821B80
:1041C000930B08952FB7F89460916504709166047D
:1041D00080916704909168042FBF08952FB7F894D9
:1041E0008091650490916604A0916704B091680481
:1041F0002FBF08951F920F920FB60F9211248F9325
:104200009F93AF93BF9380916404811113C08091F9
:10421000650490916604A0916704B091680441968A
:10422000A11DB11D8093650490936604A09367045B
:10423000B0936804BF91AF919F918F910F900FBE83
:104240000F901F901895209156012223C9F02091BC
:10425000690427FF15C0262F2695269526952E3111
:10426000C8F4FC01E20FF11D677081E090E001C02D
:10427000880F6A95EAF78095928189238283089551
:10428000FC0106962281621301C012823196E81762
:10429000F907C1F70895209156012223C1F020911A
:1042A000690427FF14C0262F2695269526952E31C2
:1042B00030F5FC01E20FF11D677081E090E001C074
:1042C000880F6A95EAF79281892B82830895FC0111
:1042D00032962FEF30E04191641789F02F3F19F4A7
:1042E000411101C0232F3F5F3630A9F72F3F39F02E
:1042F000FC01E20FF11D27FDFA95628308950895F0
:1043000020916204309163042817390771F090936B
:10431000630480936204E0916004F091610430973B
:1043200021F00084F185E02D0994089520915E0428
:1043300030915F042817390771F090935F048093E0
:104340005E04E0916004F0916104309721F00680F2
:10435000F781E02D099408950E94F516882351F005
:10436000E0916004F0916104309721F00190F081B8
:10437000E02D099480E00895EF92FF920F93CF9380
:10438000DF93C42FD22FFC0182818823D1F0409388
:104390005D040E94EE2090935C0480935B0480E2B5
:1043A0008C0F883008F06DC0C77081E001C0880FA5
:1043B000CA95EAF7DF91CF910F91FF90EF900C949F
:1043C000120780915D0448134BC080915B0490916B
:1043D0005C040E94D320883C910508F041C0CD17B1
:1043E000C9F080E28C0F883040F4C77081E001C0D2
:1043F000880FCA95EAF70E940B0780E28D0F88307C
:1044000048F481E09D2F977001C0880F9A95EAF7D4
:104410000E941207093319F0E12CF12C03C080E54A
:10442000E82EF12C802F0E944E07E114F10451F088
:104430008FE99FE00197F1F700C0000091E0E91AD1
:10444000F108F3CF802F0E941C0780E28D0F883087
:10445000C0F4D77081E001C0880FDA95EAF70AC08E
:1044600080E28C0F883068F4C77081E001C0880F4B
:10447000CA95EAF7DF91CF910F91FF90EF900C94DE
:104480000B07DF91CF910F91FF90EF9008958091EE
:104490005A0490915904882389F0992369F062E0C5
:1044A00070E086E594E00E941724892B19F0809132
:1044B00059040895109259049091590481E0892774
:1044C000089580915A048823F9F00E94E220DC01CB
:1044D000CB01805A9541AF4FBF4F809355049093C5
:1044E0005604A0935704B093580480915904811145
:1044F0000BC062E070E084E594E00E941724892BF1
:1045000019F481E080935904809159040895CF9360
:10451000E82F2091AB063091AC06255A34404091EB
:10452000A204642F70E0C9010E942434481B842F28
:10453000EE2351F066E00E944835C82FC150A8F024
:1045400080E20E94F122FACFA901480F511D4115C6
:10455000524018F080E020E030E0280F311D2B554C
:104560003B4F3093AC062093AB06CF9108959091CA
:10457000500490FF04C09695981740F003C0811135
:1045800005C090E0961710F40C94E93061E00C94AB
:10459000A030882311F0FA0101C0FB010994EAE977
:1045A000F2E01182828184608283089560915004D8
:1045B000669570E04BE050E083E491E00E948B351B
:1045C000892B19F481E080939B020E94BA19909381
:1045D00095028093940280919C02846080939C0257
:1045E0000895CF93DF938A3011F481E003C08D30BA
:1045F00029F480E0DF91CF910C948722682F80917D
:10460000AB069091AC0626E0FC01A5EAB6E001906D
:104610000D922A95E1F7603E30F026E0FC01119200
:104620002A95E9F70AC0F6E06F9FB00111246154A2
:104630007A4F46E050E00E949434C091AB06D0918E
:10464000AC0646E050E0BE0185EA96E00E9498354F
:10465000892B49F19E01255A3440A90185E05695E0
:1046600047958A95E1F781E090E0BC0102C0660FB2
:10467000771F4A95E2F74091A3045091A404462B7A
:10468000572B2B5F3F4F65E0369527956A95E1F7ED
:1046900002C0880F991F2A95E2F7842B952B9093DF
:1046A000A4048093A3049E012F5934404091A20496
:1046B000642F70E0C9010E942434481B463010F476
:1046C000240F311D211582E0380710F020E030E082
:1046D0002B553B4F3093AC062093AB06DF91CF9127
:1046E0000895CF93DF93EC01FE018491882321F09C
:1046F0000E94F1222196F8CFDF91CF9108950F9378
:104700001F93CF93DF93EC01FC0101900020E9F7A8
:104710008F0101501109C017D10720F489910E941F
:10472000F122F9CFDF91CF911F910F9108958F92D0
:104730009F92AF92BF92CF92DF92EF92FF929091B1
:104740005701981305C09091A104903209F44DC00F
:104750008093570190E29093A104C82ED12CE12CB4
:10476000F12C1092A004C701B6012AE030E040E02D
:1047700050E00E941735605D603339F0C114D104F8
:10478000E104F10419F460E201C060E360939F0466
:104790008AE0882E912CA12CB12CC701B601A5016D
:1047A00094010E941735211531054105510541F04D
:1047B000CA01B901A50194010E941735605D01C0CD
:1047C00060E260939E04C701B60124E630E040E059
:1047D00050E00E941735211531054105510511F0B2
:1047E000205D01C020E220939D048DE994E0FF90BC
:1047F000EF90DF90CF90BF90AF909F908F900895F3
:10480000FC01AC014C5F5F4F8FEF91E32191822758
:1048100028E030E087FF03C0880F892701C0880F98
:1048200021503109B9F7E417F50781F70895EF92A0
:10483000FF920F931F93CF93DF93EC017B0164E60C
:1048400070E088E70E94F9308C01EC0EFD1ECE1559
:10485000DF0561F017FD0AC0FE01849164E670E097
:104860000E947A318C012196892B89F30E94FE31B6
:10487000C801DF91CF911F910F91FF90EF900895A4
:10488000EF92FF920F931F93CF93DF937C018B01E5
:104890000E94A41F811119C0E70101151105A1F0A3
:1048A0008091E80085FD0AC08091E8008E778093B2
:1048B000E8000E94A41F882381F307C08991809398
:1048C000F10001501109E9CF80E0DF91CF911F91F4
:1048D0000F91FF90EF9008951F93CF93DF93CDB783
:1048E000DEB7AA970FB6F894DEBF0FBECDBFE5E9DD
:1048F000F4E08DE994E02091F10021938E179F0759
:10490000D1F780919604833009F461C030F481308E
:1049100071F0823009F49BC0B2C08A3009F487C0BC
:104920008B3009F46CC0893009F0A9C020C0809197
:104930009504813A09F0A3C08091E800877F8093B5
:10494000E8008091990490919A04892B21F460E207
:1049500081E794E003C060E080E090E070E00E94B6
:104960002B208091E8008B778093E80088C08091AD
:104970009504813209F083C08091990490919A0442
:10498000029708F07CC08091E800877F8093E80060
:104990008091E80082FD05C0809193048111F8CFD9
:1049A0006EC02091F3008091F20090E0922B02976C
:1049B00031F48091F100813011F0863021F4809142
:1049C000F100809370048091E8008B7754C080914F
:1049D0009504813A09F053C08091990490919A040A
:1049E000892B09F04CC08091E800877F8093E80014
:1049F0008091E80080FFFCCF8091560137C0809104
:104A000095048132E1F58091990490919A04892B63
:104A1000B1F58091E800877F8093E8000E94D71F5E
:104A200080919704809356010E94E92C28C08091C0
:104A30009504813221F58091E800877F8093E8001A
:104A40000E94D71F8091980480936F0418C08091B2
:104A50009504813AA1F48091E800877F8093E80073
:104A60008091E80080FFFCCF80916F048093F1007B
:104A70008091E8008E778093E8000E94D71F809194
:104A8000E80083FFCEC18091950490919604492F50
:104A900050E04A30510508F0C4C1FA01EE59FF4F09
:104AA0000C947635803821F0823809F0BAC108C0FC
:104AB0008091910490919204992389F082600FC0B3
:104AC000809199048F70873008F0ABC18093E90022
:104AD0008091EB0085FB882780F91092E900909186
:104AE000E800977F9093E8008093F1001092F10026
:104AF00065C1282F2D7F09F094C1882319F08230D9
:104B000061F08FC180919704813009F08AC19330A0
:104B100009F080E0809392042EC080919704811167
:104B20002AC0809199048F702FEF280F263008F04B
:104B300078C18093E9002091EB0020FF1CC09330E6
:104B400021F48091EB00806214C09091EB009061A1
:104B50009093EB0021E030E0A90102C0440F551F03
:104B60008A95E2F74093EA001092EA008091EB0008
:104B700088608093EB001092E9008091E800877FC5
:104B800020C181114EC1109197041F778091E300DD
:104B90008078812B8093E3008091E800877F809369
:104BA000E8000E94D71F8091E80080FFFCCF809131
:104BB000E30080688093E300111102C082E001C02D
:104BC00083E0809393042DC18058823008F029C17E
:104BD00080919704909198048C3D53E0950779F566
:104BE00083E08A838AE289834FB7F894DE011396C3
:104BF00020E03EE051E2E32FF0E050935700E491D3
:104C000020FF03C0E295EF703F5FEF708E2F90E0C2
:104C1000EA3010F0C79601C0C0968D939D932F5F28
:104C2000243149F74FBF8091E800877F8093E800E7
:104C30006AE270E0CE0101960E942B20AEC0409146
:104C4000990450919A04292F332723303105A9F074
:104C500068F42130310509F4F3C02230310509F040
:104C6000E0C08BE390E0EEE4F5E044C02132310592
:104C700021F12232310571F1D4C09927813091059B
:104C8000A1F058F0029709F0CCC0EBE9F5E0E4910F
:104C90008E2F90E0EBE9F5E02AC0EBEBF5E0E49134
:104CA0008E2F90E0EBEBF5E022C0E9EAF5E0E4912D
:104CB0008E2F90E0E9EAF5E01AC04115510509F49C
:104CC000C4C04130510509F0ACC089E090E0E9E78B
:104CD000F5E010C04115510509F4BCC04130510543
:104CE00009F09FC086EB90E0E8E5F4E003C0009790
:104CF00009F497C02091E800277F2093E8002091D5
:104D00009B0430919C048217930708F49C0140E0B7
:104D10002115310589F180919304882309F43DC060
:104D20008530D9F18091E80083FD37C08091E8009B
:104D300082FD2FC08091E80080FFEACF4091F30010
:104D40008091F20090E0942B2115310559F08830C4
:104D5000910540F444914093F1003196215031097E
:104D60000196F2CF41E0089709F040E08091E80019
:104D70008E778093E800CCCF4111CDCF0AC08091CF
:104D80009304882351F0853041F08091E80083FD41
:104D900004C08091E80082FFF2CF8091E8008B7719
:104DA0008093E8003EC08038E1F58091E800877F7D
:104DB0008093E800809194048093F1008091E80052
:104DC0008E778093E8000E94D71F2BC0811129C0E5
:104DD00080919704909198049927029714F58091F7
:104DE000E800877F8093E800109197041093940463
:104DF0000E94D71F111106C08091E30087FD02C0F9
:104E000081E001C084E08093930442E061EC81E0A2
:104E10000E94F61F42E261EC82E00E94F61F809140
:104E200093048091E80083FF1AC08091E800877F97
:104E30008093E8008091EB0080628093EB000FC0CC
:104E400082E190E0E9E8F5E055CF89E090E0E0E626
:104E5000F5E050CF80E490E0EEE0F5E04BCFAA968D
:104E60000FB6F894DEBF0FBECDBFDF91CF911F917B
:104E700008951F920F920FB60F9211242F933F9314
:104E80004F935F936F937F938F939F93AF93BF9352
:104E9000CF93DF93EF93FF93C091E900CF708091A0
:104EA000EC00D82FD17080FDD0E81092E9008091FD
:104EB000F000877F8093F00078940E946C24109219
:104EC000E9008091F00088608093F000CD2BCF70D6
:104ED000C093E900FF91EF91DF91CF91BF91AF9126
:104EE0009F918F917F916F915F914F913F912F9102
:104EF0000F900FBE0F901F901895E8EDF0E08081A5
:104F00008E7F80831092E2001092DA001092E1000E
:104F1000A0EEB0E08C9181608C9380818F7780834C
:104F200019BCA7EDB0E08C918E7F8C9380818F7E31
:104F3000808310926E040895CF92DF92EF92FF92D9
:104F40000F931F93CF93DF93C8EDD0E088818F7EBE
:104F50008883E7EDF0E080818160808384E082BF18
:104F600081E080936E0488818E7F888302EE10E05A
:104F7000F80110821092DA0081EEC82ED12CF601D1
:104F8000108288818F778883888180688883888170
:104F90008F7D888319BC1092930410929404109210
:104FA00092041092910490EEE92EF12CF701808189
:104FB0008B7F808388818160888342E060E080E02D
:104FC0000E94F61FF60180818E7F8083F801808128
:104FD00081608083808188608083F70180818E7FFB
:104FE0008083888180618883DF91CF911F910F91A9
:104FF000FF90EF90DF90CF9008951F920F920FB621
:105000000F9211242F933F934F935F936F937F934E
:105010008F939F93AF93BF93EF93FF938091E100A2
:1050200082FF09C08091E20082FF05C08091E1000B
:105030008B7F8093E1008091DA0080FF2AC080910D
:10504000D80080FF26C08091DA008E7F8093DA003E
:105050008091D90080FF18C080E189BD82E189BDBF
:1050600009B400FEFDCF81E08093930480916E042B
:1050700081110FC00E947D270E949C278091E20031
:1050800084608093E20005C019BC109293041092D2
:105090006E048091E10080FF17C08091E20080FFE4
:1050A00013C08091E2008E7F8093E2008091E20045
:1050B00080618093E2008091D80080628093D80064
:1050C00019BC85E0809393048091E10084FF30C097
:1050D0008091E20084FF2CC080E189BD82E189BD1E
:1050E00009B400FEFDCF8091D8008F7D8093D80059
:1050F0008091E1008F7E8093E1008091E2008F7EBD
:105100008093E2008091E20081608093E2008091D0
:105110009404882311F084E007C08091E30087FDA8
:1051200002C081E001C083E08093930480919304E6
:105130008091E10083FF27C08091E20083FF23C0BC
:105140008091E100877F8093E10082E08093930467
:10515000109294048091E1008E7F8093E100809111
:10516000E2008E7F8093E2008091E2008061809374
:10517000E20042E060E080E00E94F61F8091F000D3
:1051800088608093F000FF91EF91BF91AF919F9164
:105190008F917F916F915F914F913F912F910F90E0
:1051A0000FBE0F901F9018958091270781111092C4
:1051B00027070895809590912607892380932607D5
:1051C00008959091260780912507892B2091240727
:1051D000982F922B9093AD06809127078823D9F0C2
:1051E000892B8093AD0680915601882331F0809100
:1051F000690487FF02C08EE101C086E0EFEAF6E0B5
:1052000090E0815028F021912223D9F39F5FF9CFBC
:1052100091110E94D428E0916004F09161043097CC
:10522000A9F080915601882359F08091690487FF85
:1052300007C08091AD068093AE0686E08093AD06F0
:105240000280F381E02D8DEA96E00994089580E0D4
:1052500090E00E94962180E090E00E9480211092D0
:105260002507109224070E94E128EFE2F7E086E08C
:10527000DF011D928A95E9F71092290710922807FD
:1052800010922A070C947630809122079091F106B3
:10529000891719F08F5F8770FBCF08950F931F93C5
:1052A000CF93DF938091F00682958F7009F05DC0F7
:1052B0008091ED06882309F458C08091220710914F
:1052C000F1066091EB067091EC06C091EE06D0916C
:1052D000EF0691E06F3F09F090E0292F06E081177B
:1052E00009F443C0209721F07F3F21F030E003C054
:1052F00031E001C0322F90E030FD34C0089FF00152
:10530000099FF00D1124DF01AE50B94F11963C9169
:105310001197371327C03C91361324C012963C9145
:10532000129731111FC013964D915C9114974C1B2D
:105330005D0B483C5105B0F48091F0068F708061A0
:105340008093F006E950F94F80818F7080618083EF
:105350008BEE96E00E946E08DF91CF911F910F9126
:105360000C94442901968770BACFDF91CF911F9199
:105370000F9108958F929F92AF92BF92DF92EF921A
:10538000FF920F931F93CF93DF938090250290900D
:105390002602A0902702B09028024091630250910B
:1053A00064026091650270916602842A952AA62A99
:1053B000B72ACFE1D0E026E0929F7001112490E35C
:1053C000D92E082F10E0D501C4010C2E04C0B695CB
:1053D000A795979587950A94D2F780FD04C02197E9
:1053E00090F780E014C0DC9EF001DD9EF00D1124EA
:1053F000EE0DFF1DE00FF11FEE0FFF1FE150F54F07
:10540000859194910E94A417019749F38C2FDF9105
:10541000CF911F910F91FF90EF90DF90BF90AF90D1
:105420009F908F900895CF93DF93EC010E94BA294B
:1054300020E3829FC0011124FC0126E0D29FE00DF1
:10544000F11D1124EC0FF11DEE0FFF1FE150F54F80
:10545000859194910E94A417DF91CF910895FC014A
:10546000808191810E94132A292F2F70E92FE295C4
:10547000EF704E2F50E0FA013297EE30F105B8F49C
:10548000E459FF4F0C947635803F99F018F4883E2C
:1054900070F40FC0843F59F40CC0883E50F0813F37
:1054A00031F407C0822F869586958695089580E011
:1054B000089581E008959F92AF92BF92CF92DF92BC
:1054C000EF92FF920F931F93CF93DF93CDB7DEB789
:1054D00061970FB6F894DEBF0FBECDBF8C0185E09B
:1054E000F801DE011D9601900D928A95E1F7F80111
:1054F000E2809091EB066091EC064091EE065091AF
:10550000EF064115510531F06F3F31F481E09F3FC7
:1055100019F403C081E001C080E0F82FF1709F2EE4
:1055200080FD1AC1F80130812181C380D4808BEEC7
:10553000A82E86E0B82EF090ED06F601E41BF50BE0
:10554000FF2009F4C6C08091F006E83CF10508F0A0
:1055500091C0482F407F09F050C0621311C09313CF
:105560000FC0FE2CE1100CC08F7080618093F0069C
:10557000C5010E946E088091F006F801858329C15B
:10558000CD2831F02F3F31F481E03F3F19F403C0C3
:1055900081E001C080E080FD03C081E08E2502C073
:1055A00080E090E0F82FF170FF2E80FF1CC080910A
:1055B00022074091F10656E0841709F4E8C090E014
:1055C000589FF001599FF00D1124EE50F94F618161
:1055D000261306C06081631303C06281E61203C014
:1055E00001968770E9CFFE2CEE2009F4F2C080917D
:1055F000F00681608093F00649C0621306C09313E1
:1056000004C0E11002C0F80186C0C8010E942F2A20
:10561000882351F1EE2041F12091F006822F8295EE
:105620008F7090E0029774F08091EB069091EC06F9
:1056300098878F831986DB86CA862C87CE010796CA
:105640000E946E0886E0F801ABEEB6E001900D9284
:105650008A95E1F70E944E290AC06217C9F0C80175
:105660000E942F2A81111EC0C8010E946E08FF24CB
:10567000F394AFC0482F407F81F78BEE96E00E94F5
:105680006E0886E0F50111928A95E9F7F12CA1C028
:105690009313E5CFE110E3CFF8018583C8010E94A1
:1056A0006E0854C0EE2001F32091F006822F8295FF
:1056B0008F7090E0029734F28091EB069091EC06A7
:1056C0009A8389831B82DD82CC822E83CE01019650
:1056D000B7CFE83CF105D0F5FE2CEE2029F262139D
:1056E00027C0931325C02091F00620FD18C0822FFB
:1056F00082958F70482F50E04115510581F0F801D7
:1057000025834F30510541F08F5F982F9295907F00
:10571000822F8F70892B8583C8010E946E0886E0D6
:10572000F801ABEEB6E001900D928A95E1F751C019
:10573000C8010E942F2A811185CF8091F0068160D7
:105740008093F006C8010E946E0843C086E0F50110
:1057500011928A95E9F73DC0EE2009F485CFC80182
:105760000E942F2AF82E882309F47ECF86E0F801C4
:10577000ABEEB6E001900D928A95E1F78091EB06D1
:105780009091EC060E94132A0E944E2922C03D8768
:105790002E878D859E850E94132A292F22952F7092
:1057A000223028F49F7039F0811105C00BC02430DD
:1057B00028F49F7049F4805E883020F0C8010E9470
:1057C0006E089F2CF92C05C0F8019581907F99F700
:1057D000F9CF8F2D61960FB6F894DEBF0FBECDBF07
:1057E000DF91CF911F910F91FF90EF90DF90CF90BD
:1057F000BF90AF909F900895292F220F920F990F7D
:10580000890F682F669566956695982F977085E045
:10581000689FB001112440E050E080E0FB01E40FFC
:10582000F51FE353F94F208130E0092E02C0369571
:1058300027950A94E2F721703327042E01C0220F26
:105840000A94EAF7822B4F5F5F4F4530510531F7DD
:105850000895292F220F920F990F890FE82FE695AF
:10586000E695E695877051E001C0550F8A95EAF7F5
:1058700085E0E89FF0011124E353F94F20E030E088
:1058800070E04081CB01022E02C0969587950A9464
:10589000E2F78170819584278523842781932F5F88
:1058A0003F4F2530310569F70895609325027093C5
:1058B000260280932702909328020C9427290F93A5
:1058C0001F9341E050E060E070E004C0440F551FBA
:1058D000661F771F8A95D2F7409550956095709511
:1058E0008091250290912602A0912702B091280272
:1058F0008A019B01082319232A233B23C901B801EC
:105900001F910F910C94552C209123078095822391
:1059100080932307982F977099F430E0482F082E32
:10592000000C550B2417350759F090916A0492FD2D
:1059300007C08595859585950E945F2C1092230759
:105940000895CF93C0916A04C2FB992790F99817E4
:1059500099F080FBC2F9C0936A046091690484E005
:1059600090E00E94B1346C2F82E290E00E94B1344A
:1059700082E0CF910C94842CCF9108950F931F93C4
:1059800041E050E060E070E004C0440F551F661F26
:10599000771F8A95D2F78091250290912602A091D7
:1059A0002702B09128028A019B01082B192B2A2B70
:1059B0003B2BC901B8011F910F910C94552C60939A
:1059C00063027093640280936502909366020C9464
:1059D00027291092260780915601882331F0809163
:1059E000690487FF02C08EE101C086E0EFEAF6E0BD
:1059F000DF011D928A95E9F70C9427293091520115
:105A00008091500480FF16C0E091510163E0E69F51
:105A1000F0011124E056FD4F539A8BB1877F9BB163
:105A200098602FB7F894AF0163E0369F400D511D89
:105A3000112414C08091530190915401891720F7CB
:105A4000E82FF0E0AF01440F551FE40FF51FE056BB
:105A5000FD4F1182108212828F5FF0CFE417F5079D
:105A600089F0319168E09BB9000000C037FF8BB925
:105A7000330F000000C000C000C08BB900C06A95A1
:105A800091F7ECCF2FBF8FE594E00197F1F700C0BD
:105A9000000008959091500490FF16C0909153011A
:105AA00020915401921770F4E92FF0E0DF01AA0F62
:105AB000BB1FEA0FFB1FE056FD4F818360834283CB
:105AC0009F5FF0CF0C94FE2C089580915004282FF6
:105AD000269530E02115310519F48170826005C0EA
